{"project/contracts/TransactionValidator.sol":{"TransactionValidator":{"abi":[{"anonymous":false,"inputs":[{"indexed":true,"internalType":"address","name":"target","type":"address"},{"indexed":false,"internalType":"string","name":"reason","type":"string"}],"name":"AddressSuspended","type":"event"},{"anonymous":false,"inputs":[{"indexed":true,"internalType":"address","name":"target","type":"address"}],"name":"AddressUnsuspended","type":"event"},{"anonymous":false,"inputs":[{"indexed":true,"internalType":"address","name":"user","type":"address"},{"indexed":true,"internalType":"address","name":"target","type":"address"},{"indexed":false,"internalType":"uint256","name":"riskScore","type":"uint256"},{"indexed":false,"internalType":"string","name":"riskLevel","type":"string"}],"name":"TransactionValidated","type":"event"},{"inputs":[{"internalType":"address","name":"_user","type":"address"},{"internalType":"uint256","name":"_limit","type":"uint256"}],"name":"getValidationHistory","outputs":[{"components":[{"internalType":"bool","name":"isValid","type":"bool"},{"internalType":"uint256","name":"riskScore","type":"uint256"},{"internalType":"string","name":"riskLevel","type":"string"},{"internalType":"string[]","name":"warnings","type":"string[]"},{"internalType":"uint256","name":"validatedAt","type":"uint256"}],"internalType":"struct TransactionValidator.ValidationResult[]","name":"","type":"tuple[]"}],"stateMutability":"view","type":"function"},{"inputs":[{"internalType":"address","name":"_address","type":"address"}],"name":"isSuspended","outputs":[{"internalType":"bool","name":"","type":"bool"}],"stateMutability":"view","type":"function"},{"inputs":[{"internalType":"address","name":"_address","type":"address"},{"internalType":"string","name":"_reason","type":"string"}],"name":"suspendAddress","outputs":[],"stateMutability":"nonpayable","type":"function"},{"inputs":[{"internalType":"address","name":"","type":"address"}],"name":"suspendedAddresses","outputs":[{"internalType":"bool","name":"","type":"bool"}],"stateMutability":"view","type":"function"},{"inputs":[{"internalType":"address","name":"_address","type":"address"}],"name":"unsuspendAddress","outputs":[],"stateMutability":"nonpayable","type":"function"},{"inputs":[{"internalType":"address","name":"_target","type":"address"},{"internalType":"uint256","name":"_value","type":"uint256"},{"internalType":"bytes","name":"_data","type":"bytes"}],"name":"validateTransaction","outputs":[{"components":[{"internalType":"bool","name":"isValid","type":"bool"},{"internalType":"uint256","name":"riskScore","type":"uint256"},{"internalType":"string","name":"riskLevel","type":"string"},{"internalType":"string[]","name":"warnings","type":"string[]"},{"internalType":"uint256","name":"validatedAt","type":"uint256"}],"internalType":"struct TransactionValidator.ValidationResult","name":"result","type":"tuple"}],"stateMutability":"nonpayable","type":"function"},{"inputs":[{"internalType":"address","name":"","type":"address"},{"internalType":"uint256","name":"","type":"uint256"}],"name":"validationHistory","outputs":[{"internalType":"bool","name":"isValid","type":"bool"},{"internalType":"uint256","name":"riskScore","type":"uint256"},{"internalType":"string","name":"riskLevel","type":"string"},{"internalType":"uint256","name":"validatedAt","type":"uint256"}],"stateMutability":"view","type":"function"}],"evm":{"bytecode":{"linkReferences":{},"object":"608060405234801561000f575f80fd5b506111ed8061001d5f395ff3fe608060405234801561000f575f80fd5b506004361061007a575f3560e01c80639cbb56d8116100585780639cbb56d8146100f5578063afb7703c14610118578063d0f837be14610138578063d473970814610158575f80fd5b80630bf6625a1461007e578063232e0e9a146100935780634293f598146100d3575b5f80fd5b61009161008c366004610c81565b61016b565b005b6100be6100a1366004610d3d565b6001600160a01b03165f9081526001602052604090205460ff1690565b60405190151581526020015b60405180910390f35b6100be6100e1366004610d3d565b60016020525f908152604090205460ff1681565b610108610103366004610d5d565b61025a565b6040516100ca9493929190610dc8565b61012b610126366004610d5d565b610329565b6040516100ca9190610e94565b61014b610146366004610ef4565b6105f3565b6040516100ca9190610f74565b610091610166366004610d3d565b610b04565b6001600160a01b0382166101b85760405162461bcd60e51b815260206004820152600f60248201526e496e76616c6964206164647265737360881b60448201526064015b60405180910390fd5b5f8151116101fa5760405162461bcd60e51b815260206004820152600f60248201526e1499585cdbdb881c995c5d5a5c9959608a1b60448201526064016101af565b6001600160a01b0382165f81815260016020819052604091829020805460ff19169091179055517f96e1072c345ce35b866e7852a7fa9d32280924277b0a41ecfbe6eadf3b1556039061024e908490610f86565b60405180910390a25050565b5f602052815f5260405f208181548110610272575f80fd5b5f91825260209091206005909102018054600182015460028301805460ff9093169550909350906102a290610f98565b80601f01602080910402602001604051908101604052809291908181526020018280546102ce90610f98565b80156103195780601f106102f057610100808354040283529160200191610319565b820191905f5260205f20905b8154815290600101906020018083116102fc57829003601f168201915b5050505050908060040154905084565b6001600160a01b0382165f9081526020819052604081208054606092908410610353578154610355565b835b90505f8167ffffffffffffffff81111561037157610371610c6d565b6040519080825280602002602001820160405280156103d357816020015b6103c06040518060a001604052805f151581526020015f815260200160608152602001606081526020015f81525090565b81526020019060019003908161038f5790505b5083549091505f906103e6908490610fe4565b90505f5b838110156105e557846103fd8284610ff7565b8154811061040d5761040d61100a565b905f5260205f2090600502016040518060a00160405290815f82015f9054906101000a900460ff161515151581526020016001820154815260200160028201805461045790610f98565b80601f016020809104026020016040519081016040528092919081815260200182805461048390610f98565b80156104ce5780601f106104a5576101008083540402835291602001916104ce565b820191905f5260205f20905b8154815290600101906020018083116104b157829003601f168201915b5050505050815260200160038201805480602002602001604051908101604052809291908181526020015f905b828210156105a3578382905f5260205f2001805461051890610f98565b80601f016020809104026020016040519081016040528092919081815260200182805461054490610f98565b801561058f5780601f106105665761010080835404028352916020019161058f565b820191905f5260205f20905b81548152906001019060200180831161057257829003601f168201915b5050505050815260200190600101906104fb565b5050505081526020016004820154815250508382815181106105c7576105c761100a565b602002602001018190525080806105dd9061101e565b9150506103ea565b509093505050505b92915050565b6106246040518060a001604052805f151581526020015f815260200160608152602001606081526020015f81525090565b60408051600580825260c082019092525f91829190816020015b606081526020019060019003908161063e5750506001600160a01b0388165f908152600160205260408120549192509060ff16156106e557610681606484610ff7565b92506040518060400160405280601b81526020017f54617267657420616464726573732069732073757370656e64656400000000008152508282815181106106cb576106cb61100a565b602002602001018190525080806106e19061101e565b9150505b6001600160a01b0388163b15801561070557506001600160a01b03881615155b1561071857610715600584610ff7565b92505b60048510610849575f61072e600482888a611036565b6107379161105d565b90506001600160e01b0319811663fe735e9960e01b036107c05761075c603285610ff7565b93506040518060400160405280601f81526020017f506f74656e7469616c2073656c6664657374727563742066756e6374696f6e008152508383815181106107a6576107a661100a565b602002602001018190525081806107bc9061101e565b9250505b6001600160e01b03198116631e518a4f60e31b03610847576107e3602885610ff7565b93506040518060400160405280601f81526020017f506f74656e7469616c2064656c656761746563616c6c2066756e6374696f6e0081525083838151811061082d5761082d61100a565b602002602001018190525081806108439061101e565b9250505b505b68056bc75e2d631000008711156108c057610865601484610ff7565b9250604051806040016040528060148152602001732630b933b2903b30b63ab2903a3930b739b332b960611b8152508282815181106108a6576108a661100a565b602002602001018190525080806108bc9061101e565b9150505b6060605084106108ef575060408051808201909152600881526710d492551250d05360c21b602082015261095f565b603284106109185750604080518082019091526004815263090928e960e31b602082015261095f565b6014841061094357506040805180820190915260068152654d454449554d60d01b602082015261095f565b506040805180820190915260038152624c4f5760e81b60208201525b5f8267ffffffffffffffff81111561097957610979610c6d565b6040519080825280602002602001820160405280156109ac57816020015b60608152602001906001900390816109975790505b5090505f5b83811015610a03578481815181106109cb576109cb61100a565b60200260200101518282815181106109e5576109e561100a565b602002602001018190525080806109fb9061101e565b9150506109b1565b506040805160a081018252605087108152602080820188815282840186815260608401869052426080850152335f908152808452948520805460018082018355918752939095208451600590940201805460ff191693151593909317835590519382019390935591519097508791906002820190610a8190826110db565b5060608201518051610a9d916003840191602090910190610b94565b50608082015181600401555050896001600160a01b0316336001600160a01b03167f5790554eb36c246f59c750b5991f81554b78f40cce8b5ff912fa024518a32b5e8785604051610aef929190611197565b60405180910390a35050505050949350505050565b6001600160a01b038116610b4c5760405162461bcd60e51b815260206004820152600f60248201526e496e76616c6964206164647265737360881b60448201526064016101af565b6001600160a01b0381165f81815260016020526040808220805460ff19169055517f75370a1140f95d92665e6c0e34447bb4a098da0b493cc853c61ca4849743066b9190a250565b828054828255905f5260205f20908101928215610bd8579160200282015b82811115610bd85782518290610bc890826110db565b5091602001919060010190610bb2565b50610be4929150610be8565b5090565b80821115610be4575f610bfb8282610c04565b50600101610be8565b508054610c1090610f98565b5f825580601f10610c1f575050565b601f0160209004905f5260205f2090810190610c3b9190610c3e565b50565b5b80821115610be4575f8155600101610c3f565b80356001600160a01b0381168114610c68575f80fd5b919050565b634e487b7160e01b5f52604160045260245ffd5b5f8060408385031215610c92575f80fd5b610c9b83610c52565b9150602083013567ffffffffffffffff80821115610cb7575f80fd5b818501915085601f830112610cca575f80fd5b813581811115610cdc57610cdc610c6d565b604051601f8201601f19908116603f01168101908382118183101715610d0457610d04610c6d565b81604052828152886020848701011115610d1c575f80fd5b826020860160208301375f6020848301015280955050505050509250929050565b5f60208284031215610d4d575f80fd5b610d5682610c52565b9392505050565b5f8060408385031215610d6e575f80fd5b610d7783610c52565b946020939093013593505050565b5f81518084525f5b81811015610da957602081850181015186830182015201610d8d565b505f602082860101526020601f19601f83011685010191505092915050565b8415158152836020820152608060408201525f610de86080830185610d85565b905082606083015295945050505050565b8051151582525f60208083015181850152604083015160a06040860152610e2360a0860182610d85565b9050606084015185820360608701528181518084528484019150848160051b85010185840193505f5b82811015610e7a57601f19868303018452610e68828651610d85565b94870194938701939150600101610e4c565b50608088015160808a015280965050505050505092915050565b5f602080830181845280855180835260408601915060408160051b87010192508387015f5b82811015610ee757603f19888603018452610ed5858351610df9565b94509285019290850190600101610eb9565b5092979650505050505050565b5f805f8060608587031215610f07575f80fd5b610f1085610c52565b935060208501359250604085013567ffffffffffffffff80821115610f33575f80fd5b818701915087601f830112610f46575f80fd5b813581811115610f54575f80fd5b886020828501011115610f65575f80fd5b95989497505060200194505050565b602081525f610d566020830184610df9565b602081525f610d566020830184610d85565b600181811c90821680610fac57607f821691505b602082108103610fca57634e487b7160e01b5f52602260045260245ffd5b50919050565b634e487b7160e01b5f52601160045260245ffd5b818103818111156105ed576105ed610fd0565b808201808211156105ed576105ed610fd0565b634e487b7160e01b5f52603260045260245ffd5b5f6001820161102f5761102f610fd0565b5060010190565b5f8085851115611044575f80fd5b83861115611050575f80fd5b5050820193919092039150565b6001600160e01b031981358181169160048510156110855780818660040360031b1b83161692505b505092915050565b601f8211156110d6575f81815260208120601f850160051c810160208610156110b35750805b601f850160051c820191505b818110156110d2578281556001016110bf565b5050505b505050565b815167ffffffffffffffff8111156110f5576110f5610c6d565b611109816111038454610f98565b8461108d565b602080601f83116001811461113c575f84156111255750858301515b5f19600386901b1c1916600185901b1785556110d2565b5f85815260208120601f198616915b8281101561116a5788860151825594840194600190910190840161114b565b508582101561118757878501515f19600388901b60f8161c191681555b5050505050600190811b01905550565b828152604060208201525f6111af6040830184610d85565b94935050505056fea264697066735822122099709941e7ef1f4e3d66a709b9748804412e26a5772537eca06d80ad5c492a3764736f6c63430008140033","opcodes":"PUSH1 0x80 PUSH1 0x40 MSTORE CALLVALUE DUP1 ISZERO PUSH2 0xF JUMPI PUSH0 DUP1 REVERT JUMPDEST POP PUSH2 0x11ED DUP1 PUSH2 0x1D PUSH0 CODECOPY PUSH0 RETURN INVALID PUSH1 0x80 PUSH1 0x40 MSTORE CALLVALUE DUP1 ISZERO PUSH2 0xF JUMPI PUSH0 DUP1 REVERT JUMPDEST POP PUSH1 0x4 CALLDATASIZE LT PUSH2 0x7A JUMPI PUSH0 CALLDATALOAD PUSH1 0xE0 SHR DUP1 PUSH4 0x9CBB56D8 GT PUSH2 0x58 JUMPI DUP1 PUSH4 0x9CBB56D8 EQ PUSH2 0xF5 JUMPI DUP1 PUSH4 0xAFB7703C EQ PUSH2 0x118 JUMPI DUP1 PUSH4 0xD0F837BE EQ PUSH2 0x138 JUMPI DUP1 PUSH4 0xD4739708 EQ PUSH2 0x158 JUMPI PUSH0 DUP1 REVERT JUMPDEST DUP1 PUSH4 0xBF6625A EQ PUSH2 0x7E JUMPI DUP1 PUSH4 0x232E0E9A EQ PUSH2 0x93 JUMPI DUP1 PUSH4 0x4293F598 EQ PUSH2 0xD3 JUMPI JUMPDEST PUSH0 DUP1 REVERT JUMPDEST PUSH2 0x91 PUSH2 0x8C CALLDATASIZE PUSH1 0x4 PUSH2 0xC81 JUMP JUMPDEST PUSH2 0x16B JUMP JUMPDEST STOP JUMPDEST PUSH2 0xBE PUSH2 0xA1 CALLDATASIZE PUSH1 0x4 PUSH2 0xD3D JUMP JUMPDEST PUSH1 0x1 PUSH1 0x1 PUSH1 0xA0 SHL SUB AND PUSH0 SWAP1 DUP2 MSTORE PUSH1 0x1 PUSH1 0x20 MSTORE PUSH1 0x40 SWAP1 KECCAK256 SLOAD PUSH1 0xFF AND SWAP1 JUMP JUMPDEST PUSH1 0x40 MLOAD SWAP1 ISZERO ISZERO DUP2 MSTORE PUSH1 0x20 ADD JUMPDEST PUSH1 0x40 MLOAD DUP1 SWAP2 SUB SWAP1 RETURN JUMPDEST PUSH2 0xBE PUSH2 0xE1 CALLDATASIZE PUSH1 0x4 PUSH2 0xD3D JUMP JUMPDEST PUSH1 0x1 PUSH1 0x20 MSTORE PUSH0 SWAP1 DUP2 MSTORE PUSH1 0x40 SWAP1 KECCAK256 SLOAD PUSH1 0xFF AND DUP2 JUMP JUMPDEST PUSH2 0x108 PUSH2 0x103 CALLDATASIZE PUSH1 0x4 PUSH2 0xD5D JUMP JUMPDEST PUSH2 0x25A JUMP JUMPDEST PUSH1 0x40 MLOAD PUSH2 0xCA SWAP5 SWAP4 SWAP3 SWAP2 SWAP1 PUSH2 0xDC8 JUMP JUMPDEST PUSH2 0x12B PUSH2 0x126 CALLDATASIZE PUSH1 0x4 PUSH2 0xD5D JUMP JUMPDEST PUSH2 0x329 JUMP JUMPDEST PUSH1 0x40 MLOAD PUSH2 0xCA SWAP2 SWAP1 PUSH2 0xE94 JUMP JUMPDEST PUSH2 0x14B PUSH2 0x146 CALLDATASIZE PUSH1 0x4 PUSH2 0xEF4 JUMP JUMPDEST PUSH2 0x5F3 JUMP JUMPDEST PUSH1 0x40 MLOAD PUSH2 0xCA SWAP2 SWAP1 PUSH2 0xF74 JUMP JUMPDEST PUSH2 0x91 PUSH2 0x166 CALLDATASIZE PUSH1 0x4 PUSH2 0xD3D JUMP JUMPDEST PUSH2 0xB04 JUMP JUMPDEST PUSH1 0x1 PUSH1 0x1 PUSH1 0xA0 SHL SUB DUP3 AND PUSH2 0x1B8 JUMPI PUSH1 0x40 MLOAD PUSH3 0x461BCD PUSH1 0xE5 SHL DUP2 MSTORE PUSH1 0x20 PUSH1 0x4 DUP3 ADD MSTORE PUSH1 0xF PUSH1 0x24 DUP3 ADD MSTORE PUSH15 0x496E76616C69642061646472657373 PUSH1 0x88 SHL PUSH1 0x44 DUP3 ADD MSTORE PUSH1 0x64 ADD JUMPDEST PUSH1 0x40 MLOAD DUP1 SWAP2 SUB SWAP1 REVERT JUMPDEST PUSH0 DUP2 MLOAD GT PUSH2 0x1FA JUMPI PUSH1 0x40 MLOAD PUSH3 0x461BCD PUSH1 0xE5 SHL DUP2 MSTORE PUSH1 0x20 PUSH1 0x4 DUP3 ADD MSTORE PUSH1 0xF PUSH1 0x24 DUP3 ADD MSTORE PUSH15 0x1499585CDBDB881C995C5D5A5C9959 PUSH1 0x8A SHL PUSH1 0x44 DUP3 ADD MSTORE PUSH1 0x64 ADD PUSH2 0x1AF JUMP JUMPDEST PUSH1 0x1 PUSH1 0x1 PUSH1 0xA0 SHL SUB DUP3 AND PUSH0 DUP2 DUP2 MSTORE PUSH1 0x1 PUSH1 0x20 DUP2 SWAP1 MSTORE PUSH1 0x40 SWAP2 DUP3 SWAP1 KECCAK256 DUP1 SLOAD PUSH1 0xFF NOT AND SWAP1 SWAP2 OR SWAP1 SSTORE MLOAD PUSH32 0x96E1072C345CE35B866E7852A7FA9D32280924277B0A41ECFBE6EADF3B155603 SWAP1 PUSH2 0x24E SWAP1 DUP5 SWAP1 PUSH2 0xF86 JUMP JUMPDEST PUSH1 0x40 MLOAD DUP1 SWAP2 SUB SWAP1 LOG2 POP POP JUMP JUMPDEST PUSH0 PUSH1 0x20 MSTORE DUP2 PUSH0 MSTORE PUSH1 0x40 PUSH0 KECCAK256 DUP2 DUP2 SLOAD DUP2 LT PUSH2 0x272 JUMPI PUSH0 DUP1 REVERT JUMPDEST PUSH0 SWAP2 DUP3 MSTORE PUSH1 0x20 SWAP1 SWAP2 KECCAK256 PUSH1 0x5 SWAP1 SWAP2 MUL ADD DUP1 SLOAD PUSH1 0x1 DUP3 ADD SLOAD PUSH1 0x2 DUP4 ADD DUP1 SLOAD PUSH1 0xFF SWAP1 SWAP4 AND SWAP6 POP SWAP1 SWAP4 POP SWAP1 PUSH2 0x2A2 SWAP1 PUSH2 0xF98 JUMP JUMPDEST DUP1 PUSH1 0x1F ADD PUSH1 0x20 DUP1 SWAP2 DIV MUL PUSH1 0x20 ADD PUSH1 0x40 MLOAD SWAP1 DUP2 ADD PUSH1 0x40 MSTORE DUP1 SWAP3 SWAP2 SWAP1 DUP2 DUP2 MSTORE PUSH1 0x20 ADD DUP3 DUP1 SLOAD PUSH2 0x2CE SWAP1 PUSH2 0xF98 JUMP JUMPDEST DUP1 ISZERO PUSH2 0x319 JUMPI DUP1 PUSH1 0x1F LT PUSH2 0x2F0 JUMPI PUSH2 0x100 DUP1 DUP4 SLOAD DIV MUL DUP4 MSTORE SWAP2 PUSH1 0x20 ADD SWAP2 PUSH2 0x319 JUMP JUMPDEST DUP3 ADD SWAP2 SWAP1 PUSH0 MSTORE PUSH1 0x20 PUSH0 KECCAK256 SWAP1 JUMPDEST DUP2 SLOAD DUP2 MSTORE SWAP1 PUSH1 0x1 ADD SWAP1 PUSH1 0x20 ADD DUP1 DUP4 GT PUSH2 0x2FC JUMPI DUP3 SWAP1 SUB PUSH1 0x1F AND DUP3 ADD SWAP2 JUMPDEST POP POP POP POP POP SWAP1 DUP1 PUSH1 0x4 ADD SLOAD SWAP1 POP DUP5 JUMP JUMPDEST PUSH1 0x1 PUSH1 0x1 PUSH1 0xA0 SHL SUB DUP3 AND PUSH0 SWAP1 DUP2 MSTORE PUSH1 0x20 DUP2 SWAP1 MSTORE PUSH1 0x40 DUP2 KECCAK256 DUP1 SLOAD PUSH1 0x60 SWAP3 SWAP1 DUP5 LT PUSH2 0x353 JUMPI DUP2 SLOAD PUSH2 0x355 JUMP JUMPDEST DUP4 JUMPDEST SWAP1 POP PUSH0 DUP2 PUSH8 0xFFFFFFFFFFFFFFFF DUP2 GT ISZERO PUSH2 0x371 JUMPI PUSH2 0x371 PUSH2 0xC6D JUMP JUMPDEST PUSH1 0x40 MLOAD SWAP1 DUP1 DUP3 MSTORE DUP1 PUSH1 0x20 MUL PUSH1 0x20 ADD DUP3 ADD PUSH1 0x40 MSTORE DUP1 ISZERO PUSH2 0x3D3 JUMPI DUP2 PUSH1 0x20 ADD JUMPDEST PUSH2 0x3C0 PUSH1 0x40 MLOAD DUP1 PUSH1 0xA0 ADD PUSH1 0x40 MSTORE DUP1 PUSH0 ISZERO ISZERO DUP2 MSTORE PUSH1 0x20 ADD PUSH0 DUP2 MSTORE PUSH1 0x20 ADD PUSH1 0x60 DUP2 MSTORE PUSH1 0x20 ADD PUSH1 0x60 DUP2 MSTORE PUSH1 0x20 ADD PUSH0 DUP2 MSTORE POP SWAP1 JUMP JUMPDEST DUP2 MSTORE PUSH1 0x20 ADD SWAP1 PUSH1 0x1 SWAP1 SUB SWAP1 DUP2 PUSH2 0x38F JUMPI SWAP1 POP JUMPDEST POP DUP4 SLOAD SWAP1 SWAP2 POP PUSH0 SWAP1 PUSH2 0x3E6 SWAP1 DUP5 SWAP1 PUSH2 0xFE4 JUMP JUMPDEST SWAP1 POP PUSH0 JUMPDEST DUP4 DUP2 LT ISZERO PUSH2 0x5E5 JUMPI DUP5 PUSH2 0x3FD DUP3 DUP5 PUSH2 0xFF7 JUMP JUMPDEST DUP2 SLOAD DUP2 LT PUSH2 0x40D JUMPI PUSH2 0x40D PUSH2 0x100A JUMP JUMPDEST SWAP1 PUSH0 MSTORE PUSH1 0x20 PUSH0 KECCAK256 SWAP1 PUSH1 0x5 MUL ADD PUSH1 0x40 MLOAD DUP1 PUSH1 0xA0 ADD PUSH1 0x40 MSTORE SWAP1 DUP2 PUSH0 DUP3 ADD PUSH0 SWAP1 SLOAD SWAP1 PUSH2 0x100 EXP SWAP1 DIV PUSH1 0xFF AND ISZERO ISZERO ISZERO ISZERO DUP2 MSTORE PUSH1 0x20 ADD PUSH1 0x1 DUP3 ADD SLOAD DUP2 MSTORE PUSH1 0x20 ADD PUSH1 0x2 DUP3 ADD DUP1 SLOAD PUSH2 0x457 SWAP1 PUSH2 0xF98 JUMP JUMPDEST DUP1 PUSH1 0x1F ADD PUSH1 0x20 DUP1 SWAP2 DIV MUL PUSH1 0x20 ADD PUSH1 0x40 MLOAD SWAP1 DUP2 ADD PUSH1 0x40 MSTORE DUP1 SWAP3 SWAP2 SWAP1 DUP2 DUP2 MSTORE PUSH1 0x20 ADD DUP3 DUP1 SLOAD PUSH2 0x483 SWAP1 PUSH2 0xF98 JUMP JUMPDEST DUP1 ISZERO PUSH2 0x4CE JUMPI DUP1 PUSH1 0x1F LT PUSH2 0x4A5 JUMPI PUSH2 0x100 DUP1 DUP4 SLOAD DIV MUL DUP4 MSTORE SWAP2 PUSH1 0x20 ADD SWAP2 PUSH2 0x4CE JUMP JUMPDEST DUP3 ADD SWAP2 SWAP1 PUSH0 MSTORE PUSH1 0x20 PUSH0 KECCAK256 SWAP1 JUMPDEST DUP2 SLOAD DUP2 MSTORE SWAP1 PUSH1 0x1 ADD SWAP1 PUSH1 0x20 ADD DUP1 DUP4 GT PUSH2 0x4B1 JUMPI DUP3 SWAP1 SUB PUSH1 0x1F AND DUP3 ADD SWAP2 JUMPDEST POP POP POP POP POP DUP2 MSTORE PUSH1 0x20 ADD PUSH1 0x3 DUP3 ADD DUP1 SLOAD DUP1 PUSH1 0x20 MUL PUSH1 0x20 ADD PUSH1 0x40 MLOAD SWAP1 DUP2 ADD PUSH1 0x40 MSTORE DUP1 SWAP3 SWAP2 SWAP1 DUP2 DUP2 MSTORE PUSH1 0x20 ADD PUSH0 SWAP1 JUMPDEST DUP3 DUP3 LT ISZERO PUSH2 0x5A3 JUMPI DUP4 DUP3 SWAP1 PUSH0 MSTORE PUSH1 0x20 PUSH0 KECCAK256 ADD DUP1 SLOAD PUSH2 0x518 SWAP1 PUSH2 0xF98 JUMP JUMPDEST DUP1 PUSH1 0x1F ADD PUSH1 0x20 DUP1 SWAP2 DIV MUL PUSH1 0x20 ADD PUSH1 0x40 MLOAD SWAP1 DUP2 ADD PUSH1 0x40 MSTORE DUP1 SWAP3 SWAP2 SWAP1 DUP2 DUP2 MSTORE PUSH1 0x20 ADD DUP3 DUP1 SLOAD PUSH2 0x544 SWAP1 PUSH2 0xF98 JUMP JUMPDEST DUP1 ISZERO PUSH2 0x58F JUMPI DUP1 PUSH1 0x1F LT PUSH2 0x566 JUMPI PUSH2 0x100 DUP1 DUP4 SLOAD DIV MUL DUP4 MSTORE SWAP2 PUSH1 0x20 ADD SWAP2 PUSH2 0x58F JUMP JUMPDEST DUP3 ADD SWAP2 SWAP1 PUSH0 MSTORE PUSH1 0x20 PUSH0 KECCAK256 SWAP1 JUMPDEST DUP2 SLOAD DUP2 MSTORE SWAP1 PUSH1 0x1 ADD SWAP1 PUSH1 0x20 ADD DUP1 DUP4 GT PUSH2 0x572 JUMPI DUP3 SWAP1 SUB PUSH1 0x1F AND DUP3 ADD SWAP2 JUMPDEST POP POP POP POP POP DUP2 MSTORE PUSH1 0x20 ADD SWAP1 PUSH1 0x1 ADD SWAP1 PUSH2 0x4FB JUMP JUMPDEST POP POP POP POP DUP2 MSTORE PUSH1 0x20 ADD PUSH1 0x4 DUP3 ADD SLOAD DUP2 MSTORE POP POP DUP4 DUP3 DUP2 MLOAD DUP2 LT PUSH2 0x5C7 JUMPI PUSH2 0x5C7 PUSH2 0x100A JUMP JUMPDEST PUSH1 0x20 MUL PUSH1 0x20 ADD ADD DUP2 SWAP1 MSTORE POP DUP1 DUP1 PUSH2 0x5DD SWAP1 PUSH2 0x101E JUMP JUMPDEST SWAP2 POP POP PUSH2 0x3EA JUMP JUMPDEST POP SWAP1 SWAP4 POP POP POP POP JUMPDEST SWAP3 SWAP2 POP POP JUMP JUMPDEST PUSH2 0x624 PUSH1 0x40 MLOAD DUP1 PUSH1 0xA0 ADD PUSH1 0x40 MSTORE DUP1 PUSH0 ISZERO ISZERO DUP2 MSTORE PUSH1 0x20 ADD PUSH0 DUP2 MSTORE PUSH1 0x20 ADD PUSH1 0x60 DUP2 MSTORE PUSH1 0x20 ADD PUSH1 0x60 DUP2 MSTORE PUSH1 0x20 ADD PUSH0 DUP2 MSTORE POP SWAP1 JUMP JUMPDEST PUSH1 0x40 DUP1 MLOAD PUSH1 0x5 DUP1 DUP3 MSTORE PUSH1 0xC0 DUP3 ADD SWAP1 SWAP3 MSTORE PUSH0 SWAP2 DUP3 SWAP2 SWAP1 DUP2 PUSH1 0x20 ADD JUMPDEST PUSH1 0x60 DUP2 MSTORE PUSH1 0x20 ADD SWAP1 PUSH1 0x1 SWAP1 SUB SWAP1 DUP2 PUSH2 0x63E JUMPI POP POP PUSH1 0x1 PUSH1 0x1 PUSH1 0xA0 SHL SUB DUP9 AND PUSH0 SWAP1 DUP2 MSTORE PUSH1 0x1 PUSH1 0x20 MSTORE PUSH1 0x40 DUP2 KECCAK256 SLOAD SWAP2 SWAP3 POP SWAP1 PUSH1 0xFF AND ISZERO PUSH2 0x6E5 JUMPI PUSH2 0x681 PUSH1 0x64 DUP5 PUSH2 0xFF7 JUMP JUMPDEST SWAP3 POP PUSH1 0x40 MLOAD DUP1 PUSH1 0x40 ADD PUSH1 0x40 MSTORE DUP1 PUSH1 0x1B DUP2 MSTORE PUSH1 0x20 ADD PUSH32 0x54617267657420616464726573732069732073757370656E6465640000000000 DUP2 MSTORE POP DUP3 DUP3 DUP2 MLOAD DUP2 LT PUSH2 0x6CB JUMPI PUSH2 0x6CB PUSH2 0x100A JUMP JUMPDEST PUSH1 0x20 MUL PUSH1 0x20 ADD ADD DUP2 SWAP1 MSTORE POP DUP1 DUP1 PUSH2 0x6E1 SWAP1 PUSH2 0x101E JUMP JUMPDEST SWAP2 POP POP JUMPDEST PUSH1 0x1 PUSH1 0x1 PUSH1 0xA0 SHL SUB DUP9 AND EXTCODESIZE ISZERO DUP1 ISZERO PUSH2 0x705 JUMPI POP PUSH1 0x1 PUSH1 0x1 PUSH1 0xA0 SHL SUB DUP9 AND ISZERO ISZERO JUMPDEST ISZERO PUSH2 0x718 JUMPI PUSH2 0x715 PUSH1 0x5 DUP5 PUSH2 0xFF7 JUMP JUMPDEST SWAP3 POP JUMPDEST PUSH1 0x4 DUP6 LT PUSH2 0x849 JUMPI PUSH0 PUSH2 0x72E PUSH1 0x4 DUP3 DUP9 DUP11 PUSH2 0x1036 JUMP JUMPDEST PUSH2 0x737 SWAP2 PUSH2 0x105D JUMP JUMPDEST SWAP1 POP PUSH1 0x1 PUSH1 0x1 PUSH1 0xE0 SHL SUB NOT DUP2 AND PUSH4 0xFE735E99 PUSH1 0xE0 SHL SUB PUSH2 0x7C0 JUMPI PUSH2 0x75C PUSH1 0x32 DUP6 PUSH2 0xFF7 JUMP JUMPDEST SWAP4 POP PUSH1 0x40 MLOAD DUP1 PUSH1 0x40 ADD PUSH1 0x40 MSTORE DUP1 PUSH1 0x1F DUP2 MSTORE PUSH1 0x20 ADD PUSH32 0x506F74656E7469616C2073656C6664657374727563742066756E6374696F6E00 DUP2 MSTORE POP DUP4 DUP4 DUP2 MLOAD DUP2 LT PUSH2 0x7A6 JUMPI PUSH2 0x7A6 PUSH2 0x100A JUMP JUMPDEST PUSH1 0x20 MUL PUSH1 0x20 ADD ADD DUP2 SWAP1 MSTORE POP DUP2 DUP1 PUSH2 0x7BC SWAP1 PUSH2 0x101E JUMP JUMPDEST SWAP3 POP POP JUMPDEST PUSH1 0x1 PUSH1 0x1 PUSH1 0xE0 SHL SUB NOT DUP2 AND PUSH4 0x1E518A4F PUSH1 0xE3 SHL SUB PUSH2 0x847 JUMPI PUSH2 0x7E3 PUSH1 0x28 DUP6 PUSH2 0xFF7 JUMP JUMPDEST SWAP4 POP PUSH1 0x40 MLOAD DUP1 PUSH1 0x40 ADD PUSH1 0x40 MSTORE DUP1 PUSH1 0x1F DUP2 MSTORE PUSH1 0x20 ADD PUSH32 0x506F74656E7469616C2064656C656761746563616C6C2066756E6374696F6E00 DUP2 MSTORE POP DUP4 DUP4 DUP2 MLOAD DUP2 LT PUSH2 0x82D JUMPI PUSH2 0x82D PUSH2 0x100A JUMP JUMPDEST PUSH1 0x20 MUL PUSH1 0x20 ADD ADD DUP2 SWAP1 MSTORE POP DUP2 DUP1 PUSH2 0x843 SWAP1 PUSH2 0x101E JUMP JUMPDEST SWAP3 POP POP JUMPDEST POP JUMPDEST PUSH9 0x56BC75E2D63100000 DUP8 GT ISZERO PUSH2 0x8C0 JUMPI PUSH2 0x865 PUSH1 0x14 DUP5 PUSH2 0xFF7 JUMP JUMPDEST SWAP3 POP PUSH1 0x40 MLOAD DUP1 PUSH1 0x40 ADD PUSH1 0x40 MSTORE DUP1 PUSH1 0x14 DUP2 MSTORE PUSH1 0x20 ADD PUSH20 0x2630B933B2903B30B63AB2903A3930B739B332B9 PUSH1 0x61 SHL DUP2 MSTORE POP DUP3 DUP3 DUP2 MLOAD DUP2 LT PUSH2 0x8A6 JUMPI PUSH2 0x8A6 PUSH2 0x100A JUMP JUMPDEST PUSH1 0x20 MUL PUSH1 0x20 ADD ADD DUP2 SWAP1 MSTORE POP DUP1 DUP1 PUSH2 0x8BC SWAP1 PUSH2 0x101E JUMP JUMPDEST SWAP2 POP POP JUMPDEST PUSH1 0x60 PUSH1 0x50 DUP5 LT PUSH2 0x8EF JUMPI POP PUSH1 0x40 DUP1 MLOAD DUP1 DUP3 ADD SWAP1 SWAP2 MSTORE PUSH1 0x8 DUP2 MSTORE PUSH8 0x10D492551250D053 PUSH1 0xC2 SHL PUSH1 0x20 DUP3 ADD MSTORE PUSH2 0x95F JUMP JUMPDEST PUSH1 0x32 DUP5 LT PUSH2 0x918 JUMPI POP PUSH1 0x40 DUP1 MLOAD DUP1 DUP3 ADD SWAP1 SWAP2 MSTORE PUSH1 0x4 DUP2 MSTORE PUSH4 0x90928E9 PUSH1 0xE3 SHL PUSH1 0x20 DUP3 ADD MSTORE PUSH2 0x95F JUMP JUMPDEST PUSH1 0x14 DUP5 LT PUSH2 0x943 JUMPI POP PUSH1 0x40 DUP1 MLOAD DUP1 DUP3 ADD SWAP1 SWAP2 MSTORE PUSH1 0x6 DUP2 MSTORE PUSH6 0x4D454449554D PUSH1 0xD0 SHL PUSH1 0x20 DUP3 ADD MSTORE PUSH2 0x95F JUMP JUMPDEST POP PUSH1 0x40 DUP1 MLOAD DUP1 DUP3 ADD SWAP1 SWAP2 MSTORE PUSH1 0x3 DUP2 MSTORE PUSH3 0x4C4F57 PUSH1 0xE8 SHL PUSH1 0x20 DUP3 ADD MSTORE JUMPDEST PUSH0 DUP3 PUSH8 0xFFFFFFFFFFFFFFFF DUP2 GT ISZERO PUSH2 0x979 JUMPI PUSH2 0x979 PUSH2 0xC6D JUMP JUMPDEST PUSH1 0x40 MLOAD SWAP1 DUP1 DUP3 MSTORE DUP1 PUSH1 0x20 MUL PUSH1 0x20 ADD DUP3 ADD PUSH1 0x40 MSTORE DUP1 ISZERO PUSH2 0x9AC JUMPI DUP2 PUSH1 0x20 ADD JUMPDEST PUSH1 0x60 DUP2 MSTORE PUSH1 0x20 ADD SWAP1 PUSH1 0x1 SWAP1 SUB SWAP1 DUP2 PUSH2 0x997 JUMPI SWAP1 POP JUMPDEST POP SWAP1 POP PUSH0 JUMPDEST DUP4 DUP2 LT ISZERO PUSH2 0xA03 JUMPI DUP5 DUP2 DUP2 MLOAD DUP2 LT PUSH2 0x9CB JUMPI PUSH2 0x9CB PUSH2 0x100A JUMP JUMPDEST PUSH1 0x20 MUL PUSH1 0x20 ADD ADD MLOAD DUP3 DUP3 DUP2 MLOAD DUP2 LT PUSH2 0x9E5 JUMPI PUSH2 0x9E5 PUSH2 0x100A JUMP JUMPDEST PUSH1 0x20 MUL PUSH1 0x20 ADD ADD DUP2 SWAP1 MSTORE POP DUP1 DUP1 PUSH2 0x9FB SWAP1 PUSH2 0x101E JUMP JUMPDEST SWAP2 POP POP PUSH2 0x9B1 JUMP JUMPDEST POP PUSH1 0x40 DUP1 MLOAD PUSH1 0xA0 DUP2 ADD DUP3 MSTORE PUSH1 0x50 DUP8 LT DUP2 MSTORE PUSH1 0x20 DUP1 DUP3 ADD DUP9 DUP2 MSTORE DUP3 DUP5 ADD DUP7 DUP2 MSTORE PUSH1 0x60 DUP5 ADD DUP7 SWAP1 MSTORE TIMESTAMP PUSH1 0x80 DUP6 ADD MSTORE CALLER PUSH0 SWAP1 DUP2 MSTORE DUP1 DUP5 MSTORE SWAP5 DUP6 KECCAK256 DUP1 SLOAD PUSH1 0x1 DUP1 DUP3 ADD DUP4 SSTORE SWAP2 DUP8 MSTORE SWAP4 SWAP1 SWAP6 KECCAK256 DUP5 MLOAD PUSH1 0x5 SWAP1 SWAP5 MUL ADD DUP1 SLOAD PUSH1 0xFF NOT AND SWAP4 ISZERO ISZERO SWAP4 SWAP1 SWAP4 OR DUP4 SSTORE SWAP1 MLOAD SWAP4 DUP3 ADD SWAP4 SWAP1 SWAP4 SSTORE SWAP2 MLOAD SWAP1 SWAP8 POP DUP8 SWAP2 SWAP1 PUSH1 0x2 DUP3 ADD SWAP1 PUSH2 0xA81 SWAP1 DUP3 PUSH2 0x10DB JUMP JUMPDEST POP PUSH1 0x60 DUP3 ADD MLOAD DUP1 MLOAD PUSH2 0xA9D SWAP2 PUSH1 0x3 DUP5 ADD SWAP2 PUSH1 0x20 SWAP1 SWAP2 ADD SWAP1 PUSH2 0xB94 JUMP JUMPDEST POP PUSH1 0x80 DUP3 ADD MLOAD DUP2 PUSH1 0x4 ADD SSTORE POP POP DUP10 PUSH1 0x1 PUSH1 0x1 PUSH1 0xA0 SHL SUB AND CALLER PUSH1 0x1 PUSH1 0x1 PUSH1 0xA0 SHL SUB AND PUSH32 0x5790554EB36C246F59C750B5991F81554B78F40CCE8B5FF912FA024518A32B5E DUP8 DUP6 PUSH1 0x40 MLOAD PUSH2 0xAEF SWAP3 SWAP2 SWAP1 PUSH2 0x1197 JUMP JUMPDEST PUSH1 0x40 MLOAD DUP1 SWAP2 SUB SWAP1 LOG3 POP POP POP POP POP SWAP5 SWAP4 POP POP POP POP JUMP JUMPDEST PUSH1 0x1 PUSH1 0x1 PUSH1 0xA0 SHL SUB DUP2 AND PUSH2 0xB4C JUMPI PUSH1 0x40 MLOAD PUSH3 0x461BCD PUSH1 0xE5 SHL DUP2 MSTORE PUSH1 0x20 PUSH1 0x4 DUP3 ADD MSTORE PUSH1 0xF PUSH1 0x24 DUP3 ADD MSTORE PUSH15 0x496E76616C69642061646472657373 PUSH1 0x88 SHL PUSH1 0x44 DUP3 ADD MSTORE PUSH1 0x64 ADD PUSH2 0x1AF JUMP JUMPDEST PUSH1 0x1 PUSH1 0x1 PUSH1 0xA0 SHL SUB DUP2 AND PUSH0 DUP2 DUP2 MSTORE PUSH1 0x1 PUSH1 0x20 MSTORE PUSH1 0x40 DUP1 DUP3 KECCAK256 DUP1 SLOAD PUSH1 0xFF NOT AND SWAP1 SSTORE MLOAD PUSH32 0x75370A1140F95D92665E6C0E34447BB4A098DA0B493CC853C61CA4849743066B SWAP2 SWAP1 LOG2 POP JUMP JUMPDEST DUP3 DUP1 SLOAD DUP3 DUP3 SSTORE SWAP1 PUSH0 MSTORE PUSH1 0x20 PUSH0 KECCAK256 SWAP1 DUP2 ADD SWAP3 DUP3 ISZERO PUSH2 0xBD8 JUMPI SWAP2 PUSH1 0x20 MUL DUP3 ADD JUMPDEST DUP3 DUP2 GT ISZERO PUSH2 0xBD8 JUMPI DUP3 MLOAD DUP3 SWAP1 PUSH2 0xBC8 SWAP1 DUP3 PUSH2 0x10DB JUMP JUMPDEST POP SWAP2 PUSH1 0x20 ADD SWAP2 SWAP1 PUSH1 0x1 ADD SWAP1 PUSH2 0xBB2 JUMP JUMPDEST POP PUSH2 0xBE4 SWAP3 SWAP2 POP PUSH2 0xBE8 JUMP JUMPDEST POP SWAP1 JUMP JUMPDEST DUP1 DUP3 GT ISZERO PUSH2 0xBE4 JUMPI PUSH0 PUSH2 0xBFB DUP3 DUP3 PUSH2 0xC04 JUMP JUMPDEST POP PUSH1 0x1 ADD PUSH2 0xBE8 JUMP JUMPDEST POP DUP1 SLOAD PUSH2 0xC10 SWAP1 PUSH2 0xF98 JUMP JUMPDEST PUSH0 DUP3 SSTORE DUP1 PUSH1 0x1F LT PUSH2 0xC1F JUMPI POP POP JUMP JUMPDEST PUSH1 0x1F ADD PUSH1 0x20 SWAP1 DIV SWAP1 PUSH0 MSTORE PUSH1 0x20 PUSH0 KECCAK256 SWAP1 DUP2 ADD SWAP1 PUSH2 0xC3B SWAP2 SWAP1 PUSH2 0xC3E JUMP JUMPDEST POP JUMP JUMPDEST JUMPDEST DUP1 DUP3 GT ISZERO PUSH2 0xBE4 JUMPI PUSH0 DUP2 SSTORE PUSH1 0x1 ADD PUSH2 0xC3F JUMP JUMPDEST DUP1 CALLDATALOAD PUSH1 0x1 PUSH1 0x1 PUSH1 0xA0 SHL SUB DUP2 AND DUP2 EQ PUSH2 0xC68 JUMPI PUSH0 DUP1 REVERT JUMPDEST SWAP2 SWAP1 POP JUMP JUMPDEST PUSH4 0x4E487B71 PUSH1 0xE0 SHL PUSH0 MSTORE PUSH1 0x41 PUSH1 0x4 MSTORE PUSH1 0x24 PUSH0 REVERT JUMPDEST PUSH0 DUP1 PUSH1 0x40 DUP4 DUP6 SUB SLT ISZERO PUSH2 0xC92 JUMPI PUSH0 DUP1 REVERT JUMPDEST PUSH2 0xC9B DUP4 PUSH2 0xC52 JUMP JUMPDEST SWAP2 POP PUSH1 0x20 DUP4 ADD CALLDATALOAD PUSH8 0xFFFFFFFFFFFFFFFF DUP1 DUP3 GT ISZERO PUSH2 0xCB7 JUMPI PUSH0 DUP1 REVERT JUMPDEST DUP2 DUP6 ADD SWAP2 POP DUP6 PUSH1 0x1F DUP4 ADD SLT PUSH2 0xCCA JUMPI PUSH0 DUP1 REVERT JUMPDEST DUP2 CALLDATALOAD DUP2 DUP2 GT ISZERO PUSH2 0xCDC JUMPI PUSH2 0xCDC PUSH2 0xC6D JUMP JUMPDEST PUSH1 0x40 MLOAD PUSH1 0x1F DUP3 ADD PUSH1 0x1F NOT SWAP1 DUP2 AND PUSH1 0x3F ADD AND DUP2 ADD SWAP1 DUP4 DUP3 GT DUP2 DUP4 LT OR ISZERO PUSH2 0xD04 JUMPI PUSH2 0xD04 PUSH2 0xC6D JUMP JUMPDEST DUP2 PUSH1 0x40 MSTORE DUP3 DUP2 MSTORE DUP9 PUSH1 0x20 DUP5 DUP8 ADD ADD GT ISZERO PUSH2 0xD1C JUMPI PUSH0 DUP1 REVERT JUMPDEST DUP3 PUSH1 0x20 DUP7 ADD PUSH1 0x20 DUP4 ADD CALLDATACOPY PUSH0 PUSH1 0x20 DUP5 DUP4 ADD ADD MSTORE DUP1 SWAP6 POP POP POP POP POP POP SWAP3 POP SWAP3 SWAP1 POP JUMP JUMPDEST PUSH0 PUSH1 0x20 DUP3 DUP5 SUB SLT ISZERO PUSH2 0xD4D JUMPI PUSH0 DUP1 REVERT JUMPDEST PUSH2 0xD56 DUP3 PUSH2 0xC52 JUMP JUMPDEST SWAP4 SWAP3 POP POP POP JUMP JUMPDEST PUSH0 DUP1 PUSH1 0x40 DUP4 DUP6 SUB SLT ISZERO PUSH2 0xD6E JUMPI PUSH0 DUP1 REVERT JUMPDEST PUSH2 0xD77 DUP4 PUSH2 0xC52 JUMP JUMPDEST SWAP5 PUSH1 0x20 SWAP4 SWAP1 SWAP4 ADD CALLDATALOAD SWAP4 POP POP POP JUMP JUMPDEST PUSH0 DUP2 MLOAD DUP1 DUP5 MSTORE PUSH0 JUMPDEST DUP2 DUP2 LT ISZERO PUSH2 0xDA9 JUMPI PUSH1 0x20 DUP2 DUP6 ADD DUP2 ADD MLOAD DUP7 DUP4 ADD DUP3 ADD MSTORE ADD PUSH2 0xD8D JUMP JUMPDEST POP PUSH0 PUSH1 0x20 DUP3 DUP7 ADD ADD MSTORE PUSH1 0x20 PUSH1 0x1F NOT PUSH1 0x1F DUP4 ADD AND DUP6 ADD ADD SWAP2 POP POP SWAP3 SWAP2 POP POP JUMP JUMPDEST DUP5 ISZERO ISZERO DUP2 MSTORE DUP4 PUSH1 0x20 DUP3 ADD MSTORE PUSH1 0x80 PUSH1 0x40 DUP3 ADD MSTORE PUSH0 PUSH2 0xDE8 PUSH1 0x80 DUP4 ADD DUP6 PUSH2 0xD85 JUMP JUMPDEST SWAP1 POP DUP3 PUSH1 0x60 DUP4 ADD MSTORE SWAP6 SWAP5 POP POP POP POP POP JUMP JUMPDEST DUP1 MLOAD ISZERO ISZERO DUP3 MSTORE PUSH0 PUSH1 0x20 DUP1 DUP4 ADD MLOAD DUP2 DUP6 ADD MSTORE PUSH1 0x40 DUP4 ADD MLOAD PUSH1 0xA0 PUSH1 0x40 DUP7 ADD MSTORE PUSH2 0xE23 PUSH1 0xA0 DUP7 ADD DUP3 PUSH2 0xD85 JUMP JUMPDEST SWAP1 POP PUSH1 0x60 DUP5 ADD MLOAD DUP6 DUP3 SUB PUSH1 0x60 DUP8 ADD MSTORE DUP2 DUP2 MLOAD DUP1 DUP5 MSTORE DUP5 DUP5 ADD SWAP2 POP DUP5 DUP2 PUSH1 0x5 SHL DUP6 ADD ADD DUP6 DUP5 ADD SWAP4 POP PUSH0 JUMPDEST DUP3 DUP2 LT ISZERO PUSH2 0xE7A JUMPI PUSH1 0x1F NOT DUP7 DUP4 SUB ADD DUP5 MSTORE PUSH2 0xE68 DUP3 DUP7 MLOAD PUSH2 0xD85 JUMP JUMPDEST SWAP5 DUP8 ADD SWAP5 SWAP4 DUP8 ADD SWAP4 SWAP2 POP PUSH1 0x1 ADD PUSH2 0xE4C JUMP JUMPDEST POP PUSH1 0x80 DUP9 ADD MLOAD PUSH1 0x80 DUP11 ADD MSTORE DUP1 SWAP7 POP POP POP POP POP POP POP SWAP3 SWAP2 POP POP JUMP JUMPDEST PUSH0 PUSH1 0x20 DUP1 DUP4 ADD DUP2 DUP5 MSTORE DUP1 DUP6 MLOAD DUP1 DUP4 MSTORE PUSH1 0x40 DUP7 ADD SWAP2 POP PUSH1 0x40 DUP2 PUSH1 0x5 SHL DUP8 ADD ADD SWAP3 POP DUP4 DUP8 ADD PUSH0 JUMPDEST DUP3 DUP2 LT ISZERO PUSH2 0xEE7 JUMPI PUSH1 0x3F NOT DUP9 DUP7 SUB ADD DUP5 MSTORE PUSH2 0xED5 DUP6 DUP4 MLOAD PUSH2 0xDF9 JUMP JUMPDEST SWAP5 POP SWAP3 DUP6 ADD SWAP3 SWAP1 DUP6 ADD SWAP1 PUSH1 0x1 ADD PUSH2 0xEB9 JUMP JUMPDEST POP SWAP3 SWAP8 SWAP7 POP POP POP POP POP POP POP JUMP JUMPDEST PUSH0 DUP1 PUSH0 DUP1 PUSH1 0x60 DUP6 DUP8 SUB SLT ISZERO PUSH2 0xF07 JUMPI PUSH0 DUP1 REVERT JUMPDEST PUSH2 0xF10 DUP6 PUSH2 0xC52 JUMP JUMPDEST SWAP4 POP PUSH1 0x20 DUP6 ADD CALLDATALOAD SWAP3 POP PUSH1 0x40 DUP6 ADD CALLDATALOAD PUSH8 0xFFFFFFFFFFFFFFFF DUP1 DUP3 GT ISZERO PUSH2 0xF33 JUMPI PUSH0 DUP1 REVERT JUMPDEST DUP2 DUP8 ADD SWAP2 POP DUP8 PUSH1 0x1F DUP4 ADD SLT PUSH2 0xF46 JUMPI PUSH0 DUP1 REVERT JUMPDEST DUP2 CALLDATALOAD DUP2 DUP2 GT ISZERO PUSH2 0xF54 JUMPI PUSH0 DUP1 REVERT JUMPDEST DUP9 PUSH1 0x20 DUP3 DUP6 ADD ADD GT ISZERO PUSH2 0xF65 JUMPI PUSH0 DUP1 REVERT JUMPDEST SWAP6 SWAP9 SWAP5 SWAP8 POP POP PUSH1 0x20 ADD SWAP5 POP POP POP JUMP JUMPDEST PUSH1 0x20 DUP2 MSTORE PUSH0 PUSH2 0xD56 PUSH1 0x20 DUP4 ADD DUP5 PUSH2 0xDF9 JUMP JUMPDEST PUSH1 0x20 DUP2 MSTORE PUSH0 PUSH2 0xD56 PUSH1 0x20 DUP4 ADD DUP5 PUSH2 0xD85 JUMP JUMPDEST PUSH1 0x1 DUP2 DUP2 SHR SWAP1 DUP3 AND DUP1 PUSH2 0xFAC JUMPI PUSH1 0x7F DUP3 AND SWAP2 POP JUMPDEST PUSH1 0x20 DUP3 LT DUP2 SUB PUSH2 0xFCA JUMPI PUSH4 0x4E487B71 PUSH1 0xE0 SHL PUSH0 MSTORE PUSH1 0x22 PUSH1 0x4 MSTORE PUSH1 0x24 PUSH0 REVERT JUMPDEST POP SWAP2 SWAP1 POP JUMP JUMPDEST PUSH4 0x4E487B71 PUSH1 0xE0 SHL PUSH0 MSTORE PUSH1 0x11 PUSH1 0x4 MSTORE PUSH1 0x24 PUSH0 REVERT JUMPDEST DUP2 DUP2 SUB DUP2 DUP2 GT ISZERO PUSH2 0x5ED JUMPI PUSH2 0x5ED PUSH2 0xFD0 JUMP JUMPDEST DUP1 DUP3 ADD DUP1 DUP3 GT ISZERO PUSH2 0x5ED JUMPI PUSH2 0x5ED PUSH2 0xFD0 JUMP JUMPDEST PUSH4 0x4E487B71 PUSH1 0xE0 SHL PUSH0 MSTORE PUSH1 0x32 PUSH1 0x4 MSTORE PUSH1 0x24 PUSH0 REVERT JUMPDEST PUSH0 PUSH1 0x1 DUP3 ADD PUSH2 0x102F JUMPI PUSH2 0x102F PUSH2 0xFD0 JUMP JUMPDEST POP PUSH1 0x1 ADD SWAP1 JUMP JUMPDEST PUSH0 DUP1 DUP6 DUP6 GT ISZERO PUSH2 0x1044 JUMPI PUSH0 DUP1 REVERT JUMPDEST DUP4 DUP7 GT ISZERO PUSH2 0x1050 JUMPI PUSH0 DUP1 REVERT JUMPDEST POP POP DUP3 ADD SWAP4 SWAP2 SWAP1 SWAP3 SUB SWAP2 POP JUMP JUMPDEST PUSH1 0x1 PUSH1 0x1 PUSH1 0xE0 SHL SUB NOT DUP2 CALLDATALOAD DUP2 DUP2 AND SWAP2 PUSH1 0x4 DUP6 LT ISZERO PUSH2 0x1085 JUMPI DUP1 DUP2 DUP7 PUSH1 0x4 SUB PUSH1 0x3 SHL SHL DUP4 AND AND SWAP3 POP JUMPDEST POP POP SWAP3 SWAP2 POP POP JUMP JUMPDEST PUSH1 0x1F DUP3 GT ISZERO PUSH2 0x10D6 JUMPI PUSH0 DUP2 DUP2 MSTORE PUSH1 0x20 DUP2 KECCAK256 PUSH1 0x1F DUP6 ADD PUSH1 0x5 SHR DUP2 ADD PUSH1 0x20 DUP7 LT ISZERO PUSH2 0x10B3 JUMPI POP DUP1 JUMPDEST PUSH1 0x1F DUP6 ADD PUSH1 0x5 SHR DUP3 ADD SWAP2 POP JUMPDEST DUP2 DUP2 LT ISZERO PUSH2 0x10D2 JUMPI DUP3 DUP2 SSTORE PUSH1 0x1 ADD PUSH2 0x10BF JUMP JUMPDEST POP POP POP JUMPDEST POP POP POP JUMP JUMPDEST DUP2 MLOAD PUSH8 0xFFFFFFFFFFFFFFFF DUP2 GT ISZERO PUSH2 0x10F5 JUMPI PUSH2 0x10F5 PUSH2 0xC6D JUMP JUMPDEST PUSH2 0x1109 DUP2 PUSH2 0x1103 DUP5 SLOAD PUSH2 0xF98 JUMP JUMPDEST DUP5 PUSH2 0x108D JUMP JUMPDEST PUSH1 0x20 DUP1 PUSH1 0x1F DUP4 GT PUSH1 0x1 DUP2 EQ PUSH2 0x113C JUMPI PUSH0 DUP5 ISZERO PUSH2 0x1125 JUMPI POP DUP6 DUP4 ADD MLOAD JUMPDEST PUSH0 NOT PUSH1 0x3 DUP7 SWAP1 SHL SHR NOT AND PUSH1 0x1 DUP6 SWAP1 SHL OR DUP6 SSTORE PUSH2 0x10D2 JUMP JUMPDEST PUSH0 DUP6 DUP2 MSTORE PUSH1 0x20 DUP2 KECCAK256 PUSH1 0x1F NOT DUP7 AND SWAP2 JUMPDEST DUP3 DUP2 LT ISZERO PUSH2 0x116A JUMPI DUP9 DUP7 ADD MLOAD DUP3 SSTORE SWAP5 DUP5 ADD SWAP5 PUSH1 0x1 SWAP1 SWAP2 ADD SWAP1 DUP5 ADD PUSH2 0x114B JUMP JUMPDEST POP DUP6 DUP3 LT ISZERO PUSH2 0x1187 JUMPI DUP8 DUP6 ADD MLOAD PUSH0 NOT PUSH1 0x3 DUP9 SWAP1 SHL PUSH1 0xF8 AND SHR NOT AND DUP2 SSTORE JUMPDEST POP POP POP POP POP PUSH1 0x1 SWAP1 DUP2 SHL ADD SWAP1 SSTORE POP JUMP JUMPDEST DUP3 DUP2 MSTORE PUSH1 0x40 PUSH1 0x20 DUP3 ADD MSTORE PUSH0 PUSH2 0x11AF PUSH1 0x40 DUP4 ADD DUP5 PUSH2 0xD85 JUMP JUMPDEST SWAP5 SWAP4 POP POP POP POP JUMP INVALID LOG2 PUSH5 0x6970667358 0x22 SLT KECCAK256 SWAP10 PUSH17 0x9941E7EF1F4E3D66A709B9748804412E26 0xA5 PUSH24 0x2537ECA06D80AD5C492A3764736F6C634300081400330000 "},"methodIdentifiers":{"getValidationHistory(address,uint256)":"afb7703c","isSuspended(address)":"232e0e9a","suspendAddress(address,string)":"0bf6625a","suspendedAddresses(address)":"4293f598","unsuspendAddress(address)":"d4739708","validateTransaction(address,uint256,bytes)":"d0f837be","validationHistory(address,uint256)":"9cbb56d8"}}}}}