{
  "_format": "hh3-artifact-1",
  "contractName": "EmergencyGuard",
  "sourceName": "contracts/EmergencyGuard.sol",
  "abi": [
    {
      "anonymous": false,
      "inputs": [
        {
          "indexed": true,
          "internalType": "address",
          "name": "user",
          "type": "address"
        },
        {
          "indexed": false,
          "internalType": "string",
          "name": "reason",
          "type": "string"
        }
      ],
      "name": "EmergencyActivated",
      "type": "event"
    },
    {
      "anonymous": false,
      "inputs": [
        {
          "indexed": true,
          "internalType": "address",
          "name": "user",
          "type": "address"
        }
      ],
      "name": "EmergencyDeactivated",
      "type": "event"
    },
    {
      "anonymous": false,
      "inputs": [
        {
          "indexed": true,
          "internalType": "address",
          "name": "user",
          "type": "address"
        },
        {
          "indexed": true,
          "internalType": "address",
          "name": "guardian",
          "type": "address"
        }
      ],
      "name": "GuardianAdded",
      "type": "event"
    },
    {
      "anonymous": false,
      "inputs": [
        {
          "indexed": true,
          "internalType": "address",
          "name": "user",
          "type": "address"
        },
        {
          "indexed": true,
          "internalType": "address",
          "name": "guardian",
          "type": "address"
        }
      ],
      "name": "GuardianRemoved",
      "type": "event"
    },
    {
      "inputs": [
        {
          "internalType": "string",
          "name": "_reason",
          "type": "string"
        }
      ],
      "name": "activateEmergency",
      "outputs": [],
      "stateMutability": "nonpayable",
      "type": "function"
    },
    {
      "inputs": [
        {
          "internalType": "address",
          "name": "_guardian",
          "type": "address"
        }
      ],
      "name": "addGuardian",
      "outputs": [],
      "stateMutability": "nonpayable",
      "type": "function"
    },
    {
      "inputs": [],
      "name": "deactivateEmergency",
      "outputs": [],
      "stateMutability": "nonpayable",
      "type": "function"
    },
    {
      "inputs": [
        {
          "internalType": "address",
          "name": "",
          "type": "address"
        }
      ],
      "name": "emergencyStatus",
      "outputs": [
        {
          "internalType": "bool",
          "name": "isFrozen",
          "type": "bool"
        },
        {
          "internalType": "uint256",
          "name": "frozenAt",
          "type": "uint256"
        },
        {
          "internalType": "string",
          "name": "reason",
          "type": "string"
        }
      ],
      "stateMutability": "view",
      "type": "function"
    },
    {
      "inputs": [
        {
          "internalType": "uint256",
          "name": "",
          "type": "uint256"
        }
      ],
      "name": "frozenAccounts",
      "outputs": [
        {
          "internalType": "address",
          "name": "",
          "type": "address"
        }
      ],
      "stateMutability": "view",
      "type": "function"
    },
    {
      "inputs": [
        {
          "internalType": "address",
          "name": "_account",
          "type": "address"
        }
      ],
      "name": "getEmergencyStatus",
      "outputs": [
        {
          "components": [
            {
              "internalType": "bool",
              "name": "isFrozen",
              "type": "bool"
            },
            {
              "internalType": "uint256",
              "name": "frozenAt",
              "type": "uint256"
            },
            {
              "internalType": "string",
              "name": "reason",
              "type": "string"
            }
          ],
          "internalType": "struct EmergencyGuard.EmergencyStatus",
          "name": "",
          "type": "tuple"
        }
      ],
      "stateMutability": "view",
      "type": "function"
    },
    {
      "inputs": [
        {
          "internalType": "uint256",
          "name": "_offset",
          "type": "uint256"
        },
        {
          "internalType": "uint256",
          "name": "_limit",
          "type": "uint256"
        }
      ],
      "name": "getFrozenAccounts",
      "outputs": [
        {
          "internalType": "address[]",
          "name": "accounts",
          "type": "address[]"
        },
        {
          "internalType": "uint256",
          "name": "total",
          "type": "uint256"
        }
      ],
      "stateMutability": "view",
      "type": "function"
    },
    {
      "inputs": [
        {
          "internalType": "address",
          "name": "",
          "type": "address"
        },
        {
          "internalType": "address",
          "name": "",
          "type": "address"
        }
      ],
      "name": "guardians",
      "outputs": [
        {
          "internalType": "bool",
          "name": "",
          "type": "bool"
        }
      ],
      "stateMutability": "view",
      "type": "function"
    },
    {
      "inputs": [
        {
          "internalType": "address",
          "name": "_account",
          "type": "address"
        }
      ],
      "name": "isFrozen",
      "outputs": [
        {
          "internalType": "bool",
          "name": "",
          "type": "bool"
        }
      ],
      "stateMutability": "view",
      "type": "function"
    },
    {
      "inputs": [
        {
          "internalType": "address",
          "name": "_user",
          "type": "address"
        },
        {
          "internalType": "address",
          "name": "_guardian",
          "type": "address"
        }
      ],
      "name": "isGuardian",
      "outputs": [
        {
          "internalType": "bool",
          "name": "",
          "type": "bool"
        }
      ],
      "stateMutability": "view",
      "type": "function"
    },
    {
      "inputs": [
        {
          "internalType": "address",
          "name": "_guardian",
          "type": "address"
        }
      ],
      "name": "removeGuardian",
      "outputs": [],
      "stateMutability": "nonpayable",
      "type": "function"
    }
  ],
  "bytecode": "0x608060405234801561000f575f80fd5b50610ca58061001d5f395ff3fe608060405234801561000f575f80fd5b50600436106100a6575f3560e01c8063be21f4e81161006e578063be21f4e814610147578063bf9ef86514610168578063d4ee973414610193578063e5839836146101a6578063e591443a146101d1578063fa686948146101f3575f80fd5b806344813081146100aa578063669cbca5146100ec578063714041561461010157806381c311b514610114578063a526d83b14610134575b5f80fd5b6100d76100b836600461087a565b600160209081525f928352604080842090915290825290205460ff1681565b60405190151581526020015b60405180910390f35b6100ff6100fa3660046108bf565b6101fb565b005b6100ff61010f36600461096a565b61036b565b61012761012236600461096a565b6103c0565b6040516100e391906109cd565b6100ff61014236600461096a565b6104ab565b61015a610155366004610a05565b6105b3565b6040516100e3929190610a25565b61017b610176366004610a75565b6106d3565b6040516001600160a01b0390911681526020016100e3565b6100d76101a136600461087a565b6106fb565b6100d76101b436600461096a565b6001600160a01b03165f9081526020819052604090205460ff1690565b6101e46101df36600461096a565b61072a565b6040516100e393929190610a8c565b6100ff6107d6565b335f9081526020819052604090205460ff16156102505760405162461bcd60e51b815260206004820152600e60248201526d20b63932b0b23c90333937bd32b760911b60448201526064015b60405180910390fd5b5f8151116102925760405162461bcd60e51b815260206004820152600f60248201526e1499585cdbdb881c995c5d5a5c9959608a1b6044820152606401610247565b604080516060810182526001808252426020808401918252838501868152335f908152918290529490208351815460ff1916901515178155905191810191909155915190919060028201906102e79082610b3b565b5050600280546001810182555f919091527f405787fa12a823e0f2b7631cc41b3ba8828b3321ca811111fa75cd3aa3bb5ace0180546001600160a01b031916339081179091556040519091507f63eb0f7af53ae164e5c99d224c844a1b380ec4b814a159b85f56312c9257ec6b90610360908490610bf7565b60405180910390a250565b335f8181526001602090815260408083206001600160a01b0386168085529252808320805460ff19169055519092917fee943cdb81826d5909c559c6b1ae6908fcaf2dbc16c4b730346736b486283e8b91a350565b60408051606080820183525f80835260208084018290528385018390526001600160a01b03861682528181529084902084519283018552805460ff161515835260018101549183019190915260028101805493949293919284019161042490610ab5565b80601f016020809104026020016040519081016040528092919081815260200182805461045090610ab5565b801561049b5780601f106104725761010080835404028352916020019161049b565b820191905f5260205f20905b81548152906001019060200180831161047e57829003601f168201915b5050505050815250509050919050565b6001600160a01b0381166105015760405162461bcd60e51b815260206004820152601860248201527f496e76616c696420677561726469616e206164647265737300000000000000006044820152606401610247565b336001600160a01b038216036105595760405162461bcd60e51b815260206004820152601b60248201527f43616e6e6f7420626520796f7572206f776e20677561726469616e00000000006044820152606401610247565b335f8181526001602081815260408084206001600160a01b0387168086529252808420805460ff191690931790925590519092917fbc3292102fa77e083913064b282926717cdfaede4d35f553d66366c0a3da755a91a350565b6002546060908084106105d557604080515f81526020810190915291506106cc565b5f816105e18587610c1d565b116105f5576105f08486610c1d565b6105f7565b815b90505f6106048683610c30565b90508067ffffffffffffffff81111561061f5761061f6108ab565b604051908082528060200260200182016040528015610648578160200160208202803683370190505b5093505f5b818110156106c85760026106618289610c1d565b8154811061067157610671610c43565b905f5260205f20015f9054906101000a90046001600160a01b031685828151811061069e5761069e610c43565b6001600160a01b0390921660209283029190910190910152806106c081610c57565b91505061064d565b5050505b9250929050565b600281815481106106e2575f80fd5b5f918252602090912001546001600160a01b0316905081565b6001600160a01b038083165f9081526001602090815260408083209385168352929052205460ff165b92915050565b5f6020819052908152604090208054600182015460028301805460ff90931693919261075590610ab5565b80601f016020809104026020016040519081016040528092919081815260200182805461078190610ab5565b80156107cc5780601f106107a3576101008083540402835291602001916107cc565b820191905f5260205f20905b8154815290600101906020018083116107af57829003601f168201915b5050505050905083565b335f9081526020819052604090205460ff166108215760405162461bcd60e51b815260206004820152600a6024820152692737ba10333937bd32b760b11b6044820152606401610247565b335f81815260208190526040808220805460ff19169055517f58c23c36c22817a3e5aea11ee4ed5a1815c9770b63d1c162bbfc7a44668818959190a2565b80356001600160a01b0381168114610875575f80fd5b919050565b5f806040838503121561088b575f80fd5b6108948361085f565b91506108a26020840161085f565b90509250929050565b634e487b7160e01b5f52604160045260245ffd5b5f602082840312156108cf575f80fd5b813567ffffffffffffffff808211156108e6575f80fd5b818401915084601f8301126108f9575f80fd5b81358181111561090b5761090b6108ab565b604051601f8201601f19908116603f01168101908382118183101715610933576109336108ab565b8160405282815287602084870101111561094b575f80fd5b826020860160208301375f928101602001929092525095945050505050565b5f6020828403121561097a575f80fd5b6109838261085f565b9392505050565b5f81518084525f5b818110156109ae57602081850181015186830182015201610992565b505f602082860101526020601f19601f83011685010191505092915050565b60208152815115156020820152602082015160408201525f60408301516060808401526109fd608084018261098a565b949350505050565b5f8060408385031215610a16575f80fd5b50508035926020909101359150565b604080825283519082018190525f906020906060840190828701845b82811015610a665781516001600160a01b031684529284019290840190600101610a41565b50505092019290925292915050565b5f60208284031215610a85575f80fd5b5035919050565b8315158152826020820152606060408201525f610aac606083018461098a565b95945050505050565b600181811c90821680610ac957607f821691505b602082108103610ae757634e487b7160e01b5f52602260045260245ffd5b50919050565b601f821115610b36575f81815260208120601f850160051c81016020861015610b135750805b601f850160051c820191505b81811015610b3257828155600101610b1f565b5050505b505050565b815167ffffffffffffffff811115610b5557610b556108ab565b610b6981610b638454610ab5565b84610aed565b602080601f831160018114610b9c575f8415610b855750858301515b5f19600386901b1c1916600185901b178555610b32565b5f85815260208120601f198616915b82811015610bca57888601518255948401946001909101908401610bab565b5085821015610be757878501515f19600388901b60f8161c191681555b5050505050600190811b01905550565b602081525f610983602083018461098a565b634e487b7160e01b5f52601160045260245ffd5b8082018082111561072457610724610c09565b8181038181111561072457610724610c09565b634e487b7160e01b5f52603260045260245ffd5b5f60018201610c6857610c68610c09565b506001019056fea26469706673582212207866593c0b66d4dbfc243be3c993cda67db1f10163c5c9c14b4a955160ba8ba864736f6c63430008140033",
  "linkReferences": {},
  "deployedLinkReferences": {},
  "immutableReferences": {},
  "inputSourceName": "project/contracts/EmergencyGuard.sol",
  "buildInfoId": "solc-0_8_20-8f025073024ebe0081489bfd226dcaffc17372fc"
}