{
  "_format": "hh3-artifact-1",
  "contractName": "TransactionValidator",
  "sourceName": "contracts/TransactionValidator.sol",
  "abi": [
    {
      "anonymous": false,
      "inputs": [
        {
          "indexed": true,
          "internalType": "address",
          "name": "target",
          "type": "address"
        },
        {
          "indexed": false,
          "internalType": "string",
          "name": "reason",
          "type": "string"
        }
      ],
      "name": "AddressSuspended",
      "type": "event"
    },
    {
      "anonymous": false,
      "inputs": [
        {
          "indexed": true,
          "internalType": "address",
          "name": "target",
          "type": "address"
        }
      ],
      "name": "AddressUnsuspended",
      "type": "event"
    },
    {
      "anonymous": false,
      "inputs": [
        {
          "indexed": true,
          "internalType": "address",
          "name": "user",
          "type": "address"
        },
        {
          "indexed": true,
          "internalType": "address",
          "name": "target",
          "type": "address"
        },
        {
          "indexed": false,
          "internalType": "uint256",
          "name": "riskScore",
          "type": "uint256"
        },
        {
          "indexed": false,
          "internalType": "string",
          "name": "riskLevel",
          "type": "string"
        }
      ],
      "name": "TransactionValidated",
      "type": "event"
    },
    {
      "inputs": [
        {
          "internalType": "address",
          "name": "_user",
          "type": "address"
        },
        {
          "internalType": "uint256",
          "name": "_limit",
          "type": "uint256"
        }
      ],
      "name": "getValidationHistory",
      "outputs": [
        {
          "components": [
            {
              "internalType": "bool",
              "name": "isValid",
              "type": "bool"
            },
            {
              "internalType": "uint256",
              "name": "riskScore",
              "type": "uint256"
            },
            {
              "internalType": "string",
              "name": "riskLevel",
              "type": "string"
            },
            {
              "internalType": "string[]",
              "name": "warnings",
              "type": "string[]"
            },
            {
              "internalType": "uint256",
              "name": "validatedAt",
              "type": "uint256"
            }
          ],
          "internalType": "struct TransactionValidator.ValidationResult[]",
          "name": "",
          "type": "tuple[]"
        }
      ],
      "stateMutability": "view",
      "type": "function"
    },
    {
      "inputs": [
        {
          "internalType": "address",
          "name": "_address",
          "type": "address"
        }
      ],
      "name": "isSuspended",
      "outputs": [
        {
          "internalType": "bool",
          "name": "",
          "type": "bool"
        }
      ],
      "stateMutability": "view",
      "type": "function"
    },
    {
      "inputs": [
        {
          "internalType": "address",
          "name": "_address",
          "type": "address"
        },
        {
          "internalType": "string",
          "name": "_reason",
          "type": "string"
        }
      ],
      "name": "suspendAddress",
      "outputs": [],
      "stateMutability": "nonpayable",
      "type": "function"
    },
    {
      "inputs": [
        {
          "internalType": "address",
          "name": "",
          "type": "address"
        }
      ],
      "name": "suspendedAddresses",
      "outputs": [
        {
          "internalType": "bool",
          "name": "",
          "type": "bool"
        }
      ],
      "stateMutability": "view",
      "type": "function"
    },
    {
      "inputs": [
        {
          "internalType": "address",
          "name": "_address",
          "type": "address"
        }
      ],
      "name": "unsuspendAddress",
      "outputs": [],
      "stateMutability": "nonpayable",
      "type": "function"
    },
    {
      "inputs": [
        {
          "internalType": "address",
          "name": "_target",
          "type": "address"
        },
        {
          "internalType": "uint256",
          "name": "_value",
          "type": "uint256"
        },
        {
          "internalType": "bytes",
          "name": "_data",
          "type": "bytes"
        }
      ],
      "name": "validateTransaction",
      "outputs": [
        {
          "components": [
            {
              "internalType": "bool",
              "name": "isValid",
              "type": "bool"
            },
            {
              "internalType": "uint256",
              "name": "riskScore",
              "type": "uint256"
            },
            {
              "internalType": "string",
              "name": "riskLevel",
              "type": "string"
            },
            {
              "internalType": "string[]",
              "name": "warnings",
              "type": "string[]"
            },
            {
              "internalType": "uint256",
              "name": "validatedAt",
              "type": "uint256"
            }
          ],
          "internalType": "struct TransactionValidator.ValidationResult",
          "name": "result",
          "type": "tuple"
        }
      ],
      "stateMutability": "nonpayable",
      "type": "function"
    },
    {
      "inputs": [
        {
          "internalType": "address",
          "name": "",
          "type": "address"
        },
        {
          "internalType": "uint256",
          "name": "",
          "type": "uint256"
        }
      ],
      "name": "validationHistory",
      "outputs": [
        {
          "internalType": "bool",
          "name": "isValid",
          "type": "bool"
        },
        {
          "internalType": "uint256",
          "name": "riskScore",
          "type": "uint256"
        },
        {
          "internalType": "string",
          "name": "riskLevel",
          "type": "string"
        },
        {
          "internalType": "uint256",
          "name": "validatedAt",
          "type": "uint256"
        }
      ],
      "stateMutability": "view",
      "type": "function"
    }
  ],
  "bytecode": "0x608060405234801561000f575f80fd5b506111ed8061001d5f395ff3fe608060405234801561000f575f80fd5b506004361061007a575f3560e01c80639cbb56d8116100585780639cbb56d8146100f5578063afb7703c14610118578063d0f837be14610138578063d473970814610158575f80fd5b80630bf6625a1461007e578063232e0e9a146100935780634293f598146100d3575b5f80fd5b61009161008c366004610c81565b61016b565b005b6100be6100a1366004610d3d565b6001600160a01b03165f9081526001602052604090205460ff1690565b60405190151581526020015b60405180910390f35b6100be6100e1366004610d3d565b60016020525f908152604090205460ff1681565b610108610103366004610d5d565b61025a565b6040516100ca9493929190610dc8565b61012b610126366004610d5d565b610329565b6040516100ca9190610e94565b61014b610146366004610ef4565b6105f3565b6040516100ca9190610f74565b610091610166366004610d3d565b610b04565b6001600160a01b0382166101b85760405162461bcd60e51b815260206004820152600f60248201526e496e76616c6964206164647265737360881b60448201526064015b60405180910390fd5b5f8151116101fa5760405162461bcd60e51b815260206004820152600f60248201526e1499585cdbdb881c995c5d5a5c9959608a1b60448201526064016101af565b6001600160a01b0382165f81815260016020819052604091829020805460ff19169091179055517f96e1072c345ce35b866e7852a7fa9d32280924277b0a41ecfbe6eadf3b1556039061024e908490610f86565b60405180910390a25050565b5f602052815f5260405f208181548110610272575f80fd5b5f91825260209091206005909102018054600182015460028301805460ff9093169550909350906102a290610f98565b80601f01602080910402602001604051908101604052809291908181526020018280546102ce90610f98565b80156103195780601f106102f057610100808354040283529160200191610319565b820191905f5260205f20905b8154815290600101906020018083116102fc57829003601f168201915b5050505050908060040154905084565b6001600160a01b0382165f9081526020819052604081208054606092908410610353578154610355565b835b90505f8167ffffffffffffffff81111561037157610371610c6d565b6040519080825280602002602001820160405280156103d357816020015b6103c06040518060a001604052805f151581526020015f815260200160608152602001606081526020015f81525090565b81526020019060019003908161038f5790505b5083549091505f906103e6908490610fe4565b90505f5b838110156105e557846103fd8284610ff7565b8154811061040d5761040d61100a565b905f5260205f2090600502016040518060a00160405290815f82015f9054906101000a900460ff161515151581526020016001820154815260200160028201805461045790610f98565b80601f016020809104026020016040519081016040528092919081815260200182805461048390610f98565b80156104ce5780601f106104a5576101008083540402835291602001916104ce565b820191905f5260205f20905b8154815290600101906020018083116104b157829003601f168201915b5050505050815260200160038201805480602002602001604051908101604052809291908181526020015f905b828210156105a3578382905f5260205f2001805461051890610f98565b80601f016020809104026020016040519081016040528092919081815260200182805461054490610f98565b801561058f5780601f106105665761010080835404028352916020019161058f565b820191905f5260205f20905b81548152906001019060200180831161057257829003601f168201915b5050505050815260200190600101906104fb565b5050505081526020016004820154815250508382815181106105c7576105c761100a565b602002602001018190525080806105dd9061101e565b9150506103ea565b509093505050505b92915050565b6106246040518060a001604052805f151581526020015f815260200160608152602001606081526020015f81525090565b60408051600580825260c082019092525f91829190816020015b606081526020019060019003908161063e5750506001600160a01b0388165f908152600160205260408120549192509060ff16156106e557610681606484610ff7565b92506040518060400160405280601b81526020017f54617267657420616464726573732069732073757370656e64656400000000008152508282815181106106cb576106cb61100a565b602002602001018190525080806106e19061101e565b9150505b6001600160a01b0388163b15801561070557506001600160a01b03881615155b1561071857610715600584610ff7565b92505b60048510610849575f61072e600482888a611036565b6107379161105d565b90506001600160e01b0319811663fe735e9960e01b036107c05761075c603285610ff7565b93506040518060400160405280601f81526020017f506f74656e7469616c2073656c6664657374727563742066756e6374696f6e008152508383815181106107a6576107a661100a565b602002602001018190525081806107bc9061101e565b9250505b6001600160e01b03198116631e518a4f60e31b03610847576107e3602885610ff7565b93506040518060400160405280601f81526020017f506f74656e7469616c2064656c656761746563616c6c2066756e6374696f6e0081525083838151811061082d5761082d61100a565b602002602001018190525081806108439061101e565b9250505b505b68056bc75e2d631000008711156108c057610865601484610ff7565b9250604051806040016040528060148152602001732630b933b2903b30b63ab2903a3930b739b332b960611b8152508282815181106108a6576108a661100a565b602002602001018190525080806108bc9061101e565b9150505b6060605084106108ef575060408051808201909152600881526710d492551250d05360c21b602082015261095f565b603284106109185750604080518082019091526004815263090928e960e31b602082015261095f565b6014841061094357506040805180820190915260068152654d454449554d60d01b602082015261095f565b506040805180820190915260038152624c4f5760e81b60208201525b5f8267ffffffffffffffff81111561097957610979610c6d565b6040519080825280602002602001820160405280156109ac57816020015b60608152602001906001900390816109975790505b5090505f5b83811015610a03578481815181106109cb576109cb61100a565b60200260200101518282815181106109e5576109e561100a565b602002602001018190525080806109fb9061101e565b9150506109b1565b506040805160a081018252605087108152602080820188815282840186815260608401869052426080850152335f908152808452948520805460018082018355918752939095208451600590940201805460ff191693151593909317835590519382019390935591519097508791906002820190610a8190826110db565b5060608201518051610a9d916003840191602090910190610b94565b50608082015181600401555050896001600160a01b0316336001600160a01b03167f5790554eb36c246f59c750b5991f81554b78f40cce8b5ff912fa024518a32b5e8785604051610aef929190611197565b60405180910390a35050505050949350505050565b6001600160a01b038116610b4c5760405162461bcd60e51b815260206004820152600f60248201526e496e76616c6964206164647265737360881b60448201526064016101af565b6001600160a01b0381165f81815260016020526040808220805460ff19169055517f75370a1140f95d92665e6c0e34447bb4a098da0b493cc853c61ca4849743066b9190a250565b828054828255905f5260205f20908101928215610bd8579160200282015b82811115610bd85782518290610bc890826110db565b5091602001919060010190610bb2565b50610be4929150610be8565b5090565b80821115610be4575f610bfb8282610c04565b50600101610be8565b508054610c1090610f98565b5f825580601f10610c1f575050565b601f0160209004905f5260205f2090810190610c3b9190610c3e565b50565b5b80821115610be4575f8155600101610c3f565b80356001600160a01b0381168114610c68575f80fd5b919050565b634e487b7160e01b5f52604160045260245ffd5b5f8060408385031215610c92575f80fd5b610c9b83610c52565b9150602083013567ffffffffffffffff80821115610cb7575f80fd5b818501915085601f830112610cca575f80fd5b813581811115610cdc57610cdc610c6d565b604051601f8201601f19908116603f01168101908382118183101715610d0457610d04610c6d565b81604052828152886020848701011115610d1c575f80fd5b826020860160208301375f6020848301015280955050505050509250929050565b5f60208284031215610d4d575f80fd5b610d5682610c52565b9392505050565b5f8060408385031215610d6e575f80fd5b610d7783610c52565b946020939093013593505050565b5f81518084525f5b81811015610da957602081850181015186830182015201610d8d565b505f602082860101526020601f19601f83011685010191505092915050565b8415158152836020820152608060408201525f610de86080830185610d85565b905082606083015295945050505050565b8051151582525f60208083015181850152604083015160a06040860152610e2360a0860182610d85565b9050606084015185820360608701528181518084528484019150848160051b85010185840193505f5b82811015610e7a57601f19868303018452610e68828651610d85565b94870194938701939150600101610e4c565b50608088015160808a015280965050505050505092915050565b5f602080830181845280855180835260408601915060408160051b87010192508387015f5b82811015610ee757603f19888603018452610ed5858351610df9565b94509285019290850190600101610eb9565b5092979650505050505050565b5f805f8060608587031215610f07575f80fd5b610f1085610c52565b935060208501359250604085013567ffffffffffffffff80821115610f33575f80fd5b818701915087601f830112610f46575f80fd5b813581811115610f54575f80fd5b886020828501011115610f65575f80fd5b95989497505060200194505050565b602081525f610d566020830184610df9565b602081525f610d566020830184610d85565b600181811c90821680610fac57607f821691505b602082108103610fca57634e487b7160e01b5f52602260045260245ffd5b50919050565b634e487b7160e01b5f52601160045260245ffd5b818103818111156105ed576105ed610fd0565b808201808211156105ed576105ed610fd0565b634e487b7160e01b5f52603260045260245ffd5b5f6001820161102f5761102f610fd0565b5060010190565b5f8085851115611044575f80fd5b83861115611050575f80fd5b5050820193919092039150565b6001600160e01b031981358181169160048510156110855780818660040360031b1b83161692505b505092915050565b601f8211156110d6575f81815260208120601f850160051c810160208610156110b35750805b601f850160051c820191505b818110156110d2578281556001016110bf565b5050505b505050565b815167ffffffffffffffff8111156110f5576110f5610c6d565b611109816111038454610f98565b8461108d565b602080601f83116001811461113c575f84156111255750858301515b5f19600386901b1c1916600185901b1785556110d2565b5f85815260208120601f198616915b8281101561116a5788860151825594840194600190910190840161114b565b508582101561118757878501515f19600388901b60f8161c191681555b5050505050600190811b01905550565b828152604060208201525f6111af6040830184610d85565b94935050505056fea264697066735822122099709941e7ef1f4e3d66a709b9748804412e26a5772537eca06d80ad5c492a3764736f6c63430008140033",
  "linkReferences": {},
  "deployedLinkReferences": {},
  "immutableReferences": {},
  "inputSourceName": "project/contracts/TransactionValidator.sol",
  "buildInfoId": "solc-0_8_20-8f025073024ebe0081489bfd226dcaffc17372fc"
}